{
  "_format": "hh-sol-artifact-1",
  "contractName": "CastColonyGame",
  "sourceName": "contracts/CastColonyGame.sol",
  "abi": [
    {
      "inputs": [
        {
          "internalType": "address",
          "name": "_gemsToken",
          "type": "address"
        }
      ],
      "stateMutability": "nonpayable",
      "type": "constructor"
    },
    {
      "anonymous": false,
      "inputs": [
        {
          "indexed": true,
          "internalType": "address",
          "name": "player",
          "type": "address"
        },
        {
          "indexed": false,
          "internalType": "uint256",
          "name": "amount",
          "type": "uint256"
        }
      ],
      "name": "AirdropClaimed",
      "type": "event"
    },
    {
      "anonymous": false,
      "inputs": [
        {
          "indexed": true,
          "internalType": "address",
          "name": "player",
          "type": "address"
        },
        {
          "indexed": false,
          "internalType": "uint256",
          "name": "x",
          "type": "uint256"
        },
        {
          "indexed": false,
          "internalType": "uint256",
          "name": "y",
          "type": "uint256"
        },
        {
          "indexed": false,
          "internalType": "uint256",
          "name": "price",
          "type": "uint256"
        }
      ],
      "name": "TileClaimed",
      "type": "event"
    },
    {
      "anonymous": false,
      "inputs": [
        {
          "indexed": true,
          "internalType": "address",
          "name": "player",
          "type": "address"
        },
        {
          "indexed": false,
          "internalType": "uint256[]",
          "name": "tileIds",
          "type": "uint256[]"
        },
        {
          "indexed": false,
          "internalType": "uint256",
          "name": "totalGems",
          "type": "uint256"
        }
      ],
      "name": "TilesHarvested",
      "type": "event"
    },
    {
      "inputs": [],
      "name": "BASE_TILE_PRICE",
      "outputs": [
        {
          "internalType": "uint256",
          "name": "",
          "type": "uint256"
        }
      ],
      "stateMutability": "view",
      "type": "function"
    },
    {
      "inputs": [],
      "name": "GEMS_PER_HOUR",
      "outputs": [
        {
          "internalType": "uint256",
          "name": "",
          "type": "uint256"
        }
      ],
      "stateMutability": "view",
      "type": "function"
    },
    {
      "inputs": [],
      "name": "INITIAL_AIRDROP",
      "outputs": [
        {
          "internalType": "uint256",
          "name": "",
          "type": "uint256"
        }
      ],
      "stateMutability": "view",
      "type": "function"
    },
    {
      "inputs": [],
      "name": "PRICE_INCREASE",
      "outputs": [
        {
          "internalType": "uint256",
          "name": "",
          "type": "uint256"
        }
      ],
      "stateMutability": "view",
      "type": "function"
    },
    {
      "inputs": [],
      "name": "airdropNewPlayer",
      "outputs": [],
      "stateMutability": "nonpayable",
      "type": "function"
    },
    {
      "inputs": [
        {
          "internalType": "uint256",
          "name": "x",
          "type": "uint256"
        },
        {
          "internalType": "uint256",
          "name": "y",
          "type": "uint256"
        }
      ],
      "name": "claimTile",
      "outputs": [],
      "stateMutability": "nonpayable",
      "type": "function"
    },
    {
      "inputs": [],
      "name": "gemsToken",
      "outputs": [
        {
          "internalType": "contract GemsToken",
          "name": "",
          "type": "address"
        }
      ],
      "stateMutability": "view",
      "type": "function"
    },
    {
      "inputs": [
        {
          "internalType": "uint256",
          "name": "x",
          "type": "uint256"
        },
        {
          "internalType": "uint256",
          "name": "y",
          "type": "uint256"
        }
      ],
      "name": "getHarvestableGems",
      "outputs": [
        {
          "internalType": "uint256",
          "name": "",
          "type": "uint256"
        }
      ],
      "stateMutability": "view",
      "type": "function"
    },
    {
      "inputs": [
        {
          "internalType": "address",
          "name": "player",
          "type": "address"
        }
      ],
      "name": "getPlayerTileCount",
      "outputs": [
        {
          "internalType": "uint256",
          "name": "",
          "type": "uint256"
        }
      ],
      "stateMutability": "view",
      "type": "function"
    },
    {
      "inputs": [
        {
          "internalType": "uint256",
          "name": "x",
          "type": "uint256"
        },
        {
          "internalType": "uint256",
          "name": "y",
          "type": "uint256"
        }
      ],
      "name": "getTileOwner",
      "outputs": [
        {
          "internalType": "address",
          "name": "",
          "type": "address"
        }
      ],
      "stateMutability": "view",
      "type": "function"
    },
    {
      "inputs": [
        {
          "internalType": "address",
          "name": "player",
          "type": "address"
        }
      ],
      "name": "getTilePrice",
      "outputs": [
        {
          "internalType": "uint256",
          "name": "",
          "type": "uint256"
        }
      ],
      "stateMutability": "view",
      "type": "function"
    },
    {
      "inputs": [
        {
          "internalType": "uint256[]",
          "name": "tileIds",
          "type": "uint256[]"
        }
      ],
      "name": "harvestTiles",
      "outputs": [],
      "stateMutability": "nonpayable",
      "type": "function"
    },
    {
      "inputs": [
        {
          "internalType": "address",
          "name": "",
          "type": "address"
        }
      ],
      "name": "hasReceivedAirdrop",
      "outputs": [
        {
          "internalType": "bool",
          "name": "",
          "type": "bool"
        }
      ],
      "stateMutability": "view",
      "type": "function"
    },
    {
      "inputs": [
        {
          "internalType": "address",
          "name": "",
          "type": "address"
        }
      ],
      "name": "playerTileCount",
      "outputs": [
        {
          "internalType": "uint256",
          "name": "",
          "type": "uint256"
        }
      ],
      "stateMutability": "view",
      "type": "function"
    },
    {
      "inputs": [
        {
          "internalType": "uint256",
          "name": "",
          "type": "uint256"
        },
        {
          "internalType": "uint256",
          "name": "",
          "type": "uint256"
        }
      ],
      "name": "tileLastHarvest",
      "outputs": [
        {
          "internalType": "uint256",
          "name": "",
          "type": "uint256"
        }
      ],
      "stateMutability": "view",
      "type": "function"
    },
    {
      "inputs": [
        {
          "internalType": "uint256",
          "name": "",
          "type": "uint256"
        },
        {
          "internalType": "uint256",
          "name": "",
          "type": "uint256"
        }
      ],
      "name": "tileOwners",
      "outputs": [
        {
          "internalType": "address",
          "name": "",
          "type": "address"
        }
      ],
      "stateMutability": "view",
      "type": "function"
    }
  ],
  "bytecode": "0x608060405234801561001057600080fd5b50604051610ae8380380610ae883398101604081905261002f91610054565b600080546001600160a01b0319166001600160a01b0392909216919091179055610084565b60006020828403121561006657600080fd5b81516001600160a01b038116811461007d57600080fd5b9392505050565b610a55806100936000396000f3fe608060405234801561001057600080fd5b50600436106101005760003560e01c8063b07870f511610097578063d840d2ad11610066578063d840d2ad1461027d578063dd57406d146102b1578063e525c87d146102c4578063f88530261461022757600080fd5b8063b07870f5146101db578063b5922a2b14610227578063ba66395414610237578063c9d052301461024a57600080fd5b80636915d788116100d35780636915d7881461018b578063799b6d2b146101b457806385752a05146101c4578063aed506ef146101d357600080fd5b8063179ab8a3146101055780632b6adcd21461014357806334249497146101565780635019d3ea14610176575b600080fd5b61013061011336600461085a565b600460209081526000928352604080842090915290825290205481565b6040519081526020015b60405180910390f35b61013061015136600461087c565b6102d7565b61013061016436600461087c565b60026020526000908152604090205481565b61018961018436600461085a565b61031d565b005b61013061019936600461087c565b6001600160a01b031660009081526002602052604090205490565b6101306802b5e3af16b188000081565b610130678ac7230489e8000081565b6101896104c8565b61020f6101e936600461085a565b60009182526003602090815260408084209284529190529020546001600160a01b031690565b6040516001600160a01b03909116815260200161013a565b61013068056bc75e2d6310000081565b60005461020f906001600160a01b031681565b61026d61025836600461087c565b60016020526000908152604090205460ff1681565b604051901515815260200161013a565b61020f61028b36600461085a565b60036020908152600092835260408084209091529082529020546001600160a01b031681565b6101896102bf3660046108ac565b6105f0565b6101306102d236600461085a565b6107da565b6001600160a01b038116600090815260026020526040812054610304906802b5e3af16b188000090610937565b6103179068056bc75e2d6310000061094e565b92915050565b60008281526003602090815260408083208484529091529020546001600160a01b0316156103875760405162461bcd60e51b8152602060048201526012602482015271151a5b1948185b1c9958591e481bdddb995960721b60448201526064015b60405180910390fd5b336000908152600260205260408120546103ab906802b5e3af16b188000090610937565b6103be9068056bc75e2d6310000061094e565b600054604051632770a7eb60e21b8152336004820152602481018390529192506001600160a01b031690639dc29fac90604401600060405180830381600087803b15801561040b57600080fd5b505af115801561041f573d6000803e3d6000fd5b5050506000848152600360209081526040808320868452825280832080546001600160a01b03191633908117909155878452600483528184208785528352818420429055835260029091528120805492509061047a83610961565b9091555050604080518481526020810184905290810182905233907f500db5c412b2796a04cb64e0d71f26a4e4f50969775cbd868cccf097b6ae69b4906060015b60405180910390a2505050565b3360009081526001602052604090205460ff16156105285760405162461bcd60e51b815260206004820152601860248201527f416c72656164792072656365697665642061697264726f700000000000000000604482015260640161037e565b336000818152600160208190526040808320805460ff1916909217909155905490516340c10f1960e01b8152600481019290925268056bc75e2d6310000060248301526001600160a01b0316906340c10f1990604401600060405180830381600087803b15801561059857600080fd5b505af11580156105ac573d6000803e3d6000fd5b505060405168056bc75e2d6310000081523392507f650e45f04ef8a0c267b2f78d983913f69ae3a353b2b32de5429307522be0ab55915060200160405180910390a2565b6000805b828110156107315760008484838181106106105761061061097a565b90506020020135905060006103e88261062991906109a6565b905060006106396103e8846109ba565b60008381526003602090815260408083208484529091529020549091506001600160a01b0316331461069d5760405162461bcd60e51b815260206004820152600d60248201526c4e6f7420796f75722074696c6560981b604482015260640161037e565b60008281526004602090815260408083208484529091528120546106c190426109ce565b905060006106d1610e10836109a6565b905060006106e7678ac7230489e8000083610937565b90508015610718576106f9818961094e565b6000868152600460209081526040808320888452909152902042905597505b505050505050808061072990610961565b9150506105f4565b50801561079d576000546040516340c10f1960e01b8152336004820152602481018390526001600160a01b03909116906340c10f1990604401600060405180830381600087803b15801561078457600080fd5b505af1158015610798573d6000803e3d6000fd5b505050505b336001600160a01b03167f3ed720a10b0ca2e36c450c2a61a88377a0fc928f511bc549651ec4cd6f728c778484846040516104bb939291906109e1565b60008281526003602090815260408083208484529091528120546001600160a01b031661080957506000610317565b600083815260046020908152604080832085845290915281205461082d90426109ce565b9050600061083d610e10836109a6565b9050610851678ac7230489e8000082610937565b95945050505050565b6000806040838503121561086d57600080fd5b50508035926020909101359150565b60006020828403121561088e57600080fd5b81356001600160a01b03811681146108a557600080fd5b9392505050565b600080602083850312156108bf57600080fd5b823567ffffffffffffffff808211156108d757600080fd5b818501915085601f8301126108eb57600080fd5b8135818111156108fa57600080fd5b8660208260051b850101111561090f57600080fd5b60209290920196919550909350505050565b634e487b7160e01b600052601160045260246000fd5b808202811582820484141761031757610317610921565b8082018082111561031757610317610921565b60006001820161097357610973610921565b5060010190565b634e487b7160e01b600052603260045260246000fd5b634e487b7160e01b600052601260045260246000fd5b6000826109b5576109b5610990565b500490565b6000826109c9576109c9610990565b500690565b8181038181111561031757610317610921565b6040808252810183905260006001600160fb1b03841115610a0157600080fd5b8360051b80866060850137602083019390935250016060019291505056fea26469706673582212204141d85947a43ccc481085bdb576fd9434d34004b45ff2403bd76bf0220e203564736f6c63430008140033",
  "linkReferences": {},
  "deployedLinkReferences": {}
}