{
  "_format": "hh-sol-artifact-1",
  "contractName": "GemsToken",
  "sourceName": "contracts/GemsToken.sol",
  "abi": [
    {
      "inputs": [],
      "stateMutability": "nonpayable",
      "type": "constructor"
    },
    {
      "inputs": [
        {
          "internalType": "address",
          "name": "spender",
          "type": "address"
        },
        {
          "internalType": "uint256",
          "name": "allowance",
          "type": "uint256"
        },
        {
          "internalType": "uint256",
          "name": "needed",
          "type": "uint256"
        }
      ],
      "name": "ERC20InsufficientAllowance",
      "type": "error"
    },
    {
      "inputs": [
        {
          "internalType": "address",
          "name": "sender",
          "type": "address"
        },
        {
          "internalType": "uint256",
          "name": "balance",
          "type": "uint256"
        },
        {
          "internalType": "uint256",
          "name": "needed",
          "type": "uint256"
        }
      ],
      "name": "ERC20InsufficientBalance",
      "type": "error"
    },
    {
      "inputs": [
        {
          "internalType": "address",
          "name": "approver",
          "type": "address"
        }
      ],
      "name": "ERC20InvalidApprover",
      "type": "error"
    },
    {
      "inputs": [
        {
          "internalType": "address",
          "name": "receiver",
          "type": "address"
        }
      ],
      "name": "ERC20InvalidReceiver",
      "type": "error"
    },
    {
      "inputs": [
        {
          "internalType": "address",
          "name": "sender",
          "type": "address"
        }
      ],
      "name": "ERC20InvalidSender",
      "type": "error"
    },
    {
      "inputs": [
        {
          "internalType": "address",
          "name": "spender",
          "type": "address"
        }
      ],
      "name": "ERC20InvalidSpender",
      "type": "error"
    },
    {
      "inputs": [
        {
          "internalType": "address",
          "name": "owner",
          "type": "address"
        }
      ],
      "name": "OwnableInvalidOwner",
      "type": "error"
    },
    {
      "inputs": [
        {
          "internalType": "address",
          "name": "account",
          "type": "address"
        }
      ],
      "name": "OwnableUnauthorizedAccount",
      "type": "error"
    },
    {
      "anonymous": false,
      "inputs": [
        {
          "indexed": true,
          "internalType": "address",
          "name": "owner",
          "type": "address"
        },
        {
          "indexed": true,
          "internalType": "address",
          "name": "spender",
          "type": "address"
        },
        {
          "indexed": false,
          "internalType": "uint256",
          "name": "value",
          "type": "uint256"
        }
      ],
      "name": "Approval",
      "type": "event"
    },
    {
      "anonymous": false,
      "inputs": [
        {
          "indexed": true,
          "internalType": "address",
          "name": "owner",
          "type": "address"
        },
        {
          "indexed": false,
          "internalType": "uint256",
          "name": "amount",
          "type": "uint256"
        }
      ],
      "name": "FundsWithdrawn",
      "type": "event"
    },
    {
      "anonymous": false,
      "inputs": [
        {
          "indexed": true,
          "internalType": "address",
          "name": "buyer",
          "type": "address"
        },
        {
          "indexed": false,
          "internalType": "uint256",
          "name": "ethAmount",
          "type": "uint256"
        },
        {
          "indexed": false,
          "internalType": "uint256",
          "name": "gemsAmount",
          "type": "uint256"
        }
      ],
      "name": "GemsPurchased",
      "type": "event"
    },
    {
      "anonymous": false,
      "inputs": [
        {
          "indexed": true,
          "internalType": "address",
          "name": "previousOwner",
          "type": "address"
        },
        {
          "indexed": true,
          "internalType": "address",
          "name": "newOwner",
          "type": "address"
        }
      ],
      "name": "OwnershipTransferred",
      "type": "event"
    },
    {
      "anonymous": false,
      "inputs": [
        {
          "indexed": true,
          "internalType": "address",
          "name": "from",
          "type": "address"
        },
        {
          "indexed": true,
          "internalType": "address",
          "name": "to",
          "type": "address"
        },
        {
          "indexed": false,
          "internalType": "uint256",
          "name": "value",
          "type": "uint256"
        }
      ],
      "name": "Transfer",
      "type": "event"
    },
    {
      "inputs": [],
      "name": "GEMS_PER_ETH",
      "outputs": [
        {
          "internalType": "uint256",
          "name": "",
          "type": "uint256"
        }
      ],
      "stateMutability": "view",
      "type": "function"
    },
    {
      "inputs": [
        {
          "internalType": "address",
          "name": "owner",
          "type": "address"
        },
        {
          "internalType": "address",
          "name": "spender",
          "type": "address"
        }
      ],
      "name": "allowance",
      "outputs": [
        {
          "internalType": "uint256",
          "name": "",
          "type": "uint256"
        }
      ],
      "stateMutability": "view",
      "type": "function"
    },
    {
      "inputs": [
        {
          "internalType": "address",
          "name": "spender",
          "type": "address"
        },
        {
          "internalType": "uint256",
          "name": "value",
          "type": "uint256"
        }
      ],
      "name": "approve",
      "outputs": [
        {
          "internalType": "bool",
          "name": "",
          "type": "bool"
        }
      ],
      "stateMutability": "nonpayable",
      "type": "function"
    },
    {
      "inputs": [
        {
          "internalType": "address",
          "name": "account",
          "type": "address"
        }
      ],
      "name": "balanceOf",
      "outputs": [
        {
          "internalType": "uint256",
          "name": "",
          "type": "uint256"
        }
      ],
      "stateMutability": "view",
      "type": "function"
    },
    {
      "inputs": [
        {
          "internalType": "address",
          "name": "from",
          "type": "address"
        },
        {
          "internalType": "uint256",
          "name": "amount",
          "type": "uint256"
        }
      ],
      "name": "burn",
      "outputs": [],
      "stateMutability": "nonpayable",
      "type": "function"
    },
    {
      "inputs": [],
      "name": "buyGems",
      "outputs": [],
      "stateMutability": "payable",
      "type": "function"
    },
    {
      "inputs": [
        {
          "internalType": "uint256",
          "name": "ethAmount",
          "type": "uint256"
        }
      ],
      "name": "calculateGemsForEth",
      "outputs": [
        {
          "internalType": "uint256",
          "name": "",
          "type": "uint256"
        }
      ],
      "stateMutability": "pure",
      "type": "function"
    },
    {
      "inputs": [],
      "name": "decimals",
      "outputs": [
        {
          "internalType": "uint8",
          "name": "",
          "type": "uint8"
        }
      ],
      "stateMutability": "pure",
      "type": "function"
    },
    {
      "inputs": [],
      "name": "getContractBalance",
      "outputs": [
        {
          "internalType": "uint256",
          "name": "",
          "type": "uint256"
        }
      ],
      "stateMutability": "view",
      "type": "function"
    },
    {
      "inputs": [
        {
          "internalType": "address",
          "name": "to",
          "type": "address"
        },
        {
          "internalType": "uint256",
          "name": "amount",
          "type": "uint256"
        }
      ],
      "name": "mint",
      "outputs": [],
      "stateMutability": "nonpayable",
      "type": "function"
    },
    {
      "inputs": [
        {
          "internalType": "address",
          "name": "to",
          "type": "address"
        },
        {
          "internalType": "uint256",
          "name": "amount",
          "type": "uint256"
        }
      ],
      "name": "mintForTesting",
      "outputs": [],
      "stateMutability": "nonpayable",
      "type": "function"
    },
    {
      "inputs": [],
      "name": "name",
      "outputs": [
        {
          "internalType": "string",
          "name": "",
          "type": "string"
        }
      ],
      "stateMutability": "view",
      "type": "function"
    },
    {
      "inputs": [],
      "name": "owner",
      "outputs": [
        {
          "internalType": "address",
          "name": "",
          "type": "address"
        }
      ],
      "stateMutability": "view",
      "type": "function"
    },
    {
      "inputs": [],
      "name": "renounceOwnership",
      "outputs": [],
      "stateMutability": "nonpayable",
      "type": "function"
    },
    {
      "inputs": [],
      "name": "symbol",
      "outputs": [
        {
          "internalType": "string",
          "name": "",
          "type": "string"
        }
      ],
      "stateMutability": "view",
      "type": "function"
    },
    {
      "inputs": [],
      "name": "totalSupply",
      "outputs": [
        {
          "internalType": "uint256",
          "name": "",
          "type": "uint256"
        }
      ],
      "stateMutability": "view",
      "type": "function"
    },
    {
      "inputs": [
        {
          "internalType": "address",
          "name": "to",
          "type": "address"
        },
        {
          "internalType": "uint256",
          "name": "value",
          "type": "uint256"
        }
      ],
      "name": "transfer",
      "outputs": [
        {
          "internalType": "bool",
          "name": "",
          "type": "bool"
        }
      ],
      "stateMutability": "nonpayable",
      "type": "function"
    },
    {
      "inputs": [
        {
          "internalType": "address",
          "name": "from",
          "type": "address"
        },
        {
          "internalType": "address",
          "name": "to",
          "type": "address"
        },
        {
          "internalType": "uint256",
          "name": "value",
          "type": "uint256"
        }
      ],
      "name": "transferFrom",
      "outputs": [
        {
          "internalType": "bool",
          "name": "",
          "type": "bool"
        }
      ],
      "stateMutability": "nonpayable",
      "type": "function"
    },
    {
      "inputs": [
        {
          "internalType": "address",
          "name": "newOwner",
          "type": "address"
        }
      ],
      "name": "transferOwnership",
      "outputs": [],
      "stateMutability": "nonpayable",
      "type": "function"
    },
    {
      "inputs": [],
      "name": "withdraw",
      "outputs": [],
      "stateMutability": "nonpayable",
      "type": "function"
    }
  ],
  "bytecode": "0x60806040523480156200001157600080fd5b50336040518060400160405280601081526020016f4361737420436f6c6f6e792047454d5360801b8152506040518060400160405280600481526020016347454d5360e01b81525081600390816200006a9190620001b4565b506004620000798282620001b4565b5050506001600160a01b038116620000ab57604051631e4fbdf760e01b81526000600482015260240160405180910390fd5b620000b681620000bd565b5062000280565b600580546001600160a01b038381166001600160a01b0319831681179093556040519116919082907f8be0079c531659141344cd1fd0a4f28419497f9722a3daafe3b4186f6b6457e090600090a35050565b634e487b7160e01b600052604160045260246000fd5b600181811c908216806200013a57607f821691505b6020821081036200015b57634e487b7160e01b600052602260045260246000fd5b50919050565b601f821115620001af57600081815260208120601f850160051c810160208610156200018a5750805b601f850160051c820191505b81811015620001ab5782815560010162000196565b5050505b505050565b81516001600160401b03811115620001d057620001d06200010f565b620001e881620001e1845462000125565b8462000161565b602080601f831160018114620002205760008415620002075750858301515b600019600386901b1c1916600185901b178555620001ab565b600085815260208120601f198616915b82811015620002515788860151825594840194600190910190840162000230565b5085821015620002705787850151600019600388901b60f8161c191681555b5050505050600190811b01905550565b610c4d80620002906000396000f3fe60806040526004361061011f5760003560e01c8063715018a6116100a0578063a9059cbb11610064578063a9059cbb146102ea578063cd3858541461030a578063dd62ed3e1461032a578063e1520947146101f1578063f2fde38b1461037057600080fd5b8063715018a6146102705780637daa9fcd146102855780638da5cb5b1461028d57806395d89b41146102b55780639dc29fac146102ca57600080fd5b80633ccfd60b116100e75780633ccfd60b146101da57806340c10f19146101f157806363a47aff146102115780636f9fb98a1461022757806370a082311461023a57600080fd5b806306fdde0314610124578063095ea7b31461014f57806318160ddd1461017f57806323b872dd1461019e578063313ce567146101be575b600080fd5b34801561013057600080fd5b50610139610390565b6040516101469190610a5f565b60405180910390f35b34801561015b57600080fd5b5061016f61016a366004610ac9565b610422565b6040519015158152602001610146565b34801561018b57600080fd5b506002545b604051908152602001610146565b3480156101aa57600080fd5b5061016f6101b9366004610af3565b61043c565b3480156101ca57600080fd5b5060405160128152602001610146565b3480156101e657600080fd5b506101ef610460565b005b3480156101fd57600080fd5b506101ef61020c366004610ac9565b61053e565b34801561021d57600080fd5b5061019061138881565b34801561023357600080fd5b5047610190565b34801561024657600080fd5b50610190610255366004610b2f565b6001600160a01b031660009081526020819052604090205490565b34801561027c57600080fd5b506101ef610554565b6101ef610568565b34801561029957600080fd5b506005546040516001600160a01b039091168152602001610146565b3480156102c157600080fd5b5061013961060a565b3480156102d657600080fd5b506101ef6102e5366004610ac9565b610619565b3480156102f657600080fd5b5061016f610305366004610ac9565b61062b565b34801561031657600080fd5b50610190610325366004610b51565b610639565b34801561033657600080fd5b50610190610345366004610b6a565b6001600160a01b03918216600090815260016020908152604080832093909416825291909152205490565b34801561037c57600080fd5b506101ef61038b366004610b2f565b610647565b60606003805461039f90610b9d565b80601f01602080910402602001604051908101604052809291908181526020018280546103cb90610b9d565b80156104185780601f106103ed57610100808354040283529160200191610418565b820191906000526020600020905b8154815290600101906020018083116103fb57829003601f168201915b5050505050905090565b600033610430818585610685565b60019150505b92915050565b60003361044a858285610697565b610455858585610716565b506001949350505050565b610468610775565b47806104b25760405162461bcd60e51b81526020600482015260146024820152734e6f2066756e647320746f20776974686472617760601b60448201526064015b60405180910390fd5b6005546040516001600160a01b039091169082156108fc029083906000818181858888f193505050501580156104ec573d6000803e3d6000fd5b506005546001600160a01b03166001600160a01b03167feaff4b37086828766ad3268786972c0cd24259d4c87a80f9d3963a3c3d999b0d8260405161053391815260200190565b60405180910390a250565b610546610775565b61055082826107a2565b5050565b61055c610775565b61056660006107d8565b565b600034116105b85760405162461bcd60e51b815260206004820152601960248201527f4d7573742073656e642045544820746f206275792047454d530000000000000060448201526064016104a9565b60006105c661138834610bed565b90506105d233826107a2565b604080513481526020810183905233917f0bdf40ebc22040a6da18bd0dcb727f83c4f86788f2aa4aff6c79bcf98cc5c90d9101610533565b60606004805461039f90610b9d565b610621610775565b610550828261082a565b600033610430818585610716565b600061043661138883610bed565b61064f610775565b6001600160a01b03811661067957604051631e4fbdf760e01b8152600060048201526024016104a9565b610682816107d8565b50565b6106928383836001610860565b505050565b6001600160a01b03838116600090815260016020908152604080832093861683529290522054600019811015610710578181101561070157604051637dc7a0d960e11b81526001600160a01b038416600482015260248101829052604481018390526064016104a9565b61071084848484036000610860565b50505050565b6001600160a01b03831661074057604051634b637e8f60e11b8152600060048201526024016104a9565b6001600160a01b03821661076a5760405163ec442f0560e01b8152600060048201526024016104a9565b610692838383610935565b6005546001600160a01b031633146105665760405163118cdaa760e01b81523360048201526024016104a9565b6001600160a01b0382166107cc5760405163ec442f0560e01b8152600060048201526024016104a9565b61055060008383610935565b600580546001600160a01b038381166001600160a01b0319831681179093556040519116919082907f8be0079c531659141344cd1fd0a4f28419497f9722a3daafe3b4186f6b6457e090600090a35050565b6001600160a01b03821661085457604051634b637e8f60e11b8152600060048201526024016104a9565b61055082600083610935565b6001600160a01b03841661088a5760405163e602df0560e01b8152600060048201526024016104a9565b6001600160a01b0383166108b457604051634a1406b160e11b8152600060048201526024016104a9565b6001600160a01b038085166000908152600160209081526040808320938716835292905220829055801561071057826001600160a01b0316846001600160a01b03167f8c5be1e5ebec7d5bd14f71427d1e84f3dd0314c0f7b2291e5b200ac8c7c3b9258460405161092791815260200190565b60405180910390a350505050565b6001600160a01b0383166109605780600260008282546109559190610c04565b909155506109d29050565b6001600160a01b038316600090815260208190526040902054818110156109b35760405163391434e360e21b81526001600160a01b038516600482015260248101829052604481018390526064016104a9565b6001600160a01b03841660009081526020819052604090209082900390555b6001600160a01b0382166109ee57600280548290039055610a0d565b6001600160a01b03821660009081526020819052604090208054820190555b816001600160a01b0316836001600160a01b03167fddf252ad1be2c89b69c2b068fc378daa952ba7f163c4a11628f55a4df523b3ef83604051610a5291815260200190565b60405180910390a3505050565b600060208083528351808285015260005b81811015610a8c57858101830151858201604001528201610a70565b506000604082860101526040601f19601f8301168501019250505092915050565b80356001600160a01b0381168114610ac457600080fd5b919050565b60008060408385031215610adc57600080fd5b610ae583610aad565b946020939093013593505050565b600080600060608486031215610b0857600080fd5b610b1184610aad565b9250610b1f60208501610aad565b9150604084013590509250925092565b600060208284031215610b4157600080fd5b610b4a82610aad565b9392505050565b600060208284031215610b6357600080fd5b5035919050565b60008060408385031215610b7d57600080fd5b610b8683610aad565b9150610b9460208401610aad565b90509250929050565b600181811c90821680610bb157607f821691505b602082108103610bd157634e487b7160e01b600052602260045260246000fd5b50919050565b634e487b7160e01b600052601160045260246000fd5b808202811582820484141761043657610436610bd7565b8082018082111561043657610436610bd756fea26469706673582212200a2df3893e4b0cccf17d53a69eef280977de15c66192ed452424b9086db4976164736f6c63430008140033",
  "linkReferences": {},
  "deployedLinkReferences": {}
}